{
  "abi": [
    {
      "inputs": [
        {
          "internalType": "address",
          "name": "_platformLogin",
          "type": "address"
        },
        {
          "internalType": "address",
          "name": "_khelManch",
          "type": "address"
        }
      ],
      "stateMutability": "nonpayable",
      "type": "constructor"
    },
    {
      "inputs": [
        {
          "internalType": "string",
          "name": "_name",
          "type": "string"
        },
        {
          "internalType": "string",
          "name": "_profilePic",
          "type": "string"
        }
      ],
      "name": "addCreator",
      "outputs": [],
      "stateMutability": "nonpayable",
      "type": "function"
    },
    {
      "inputs": [
        {
          "internalType": "string",
          "name": "_name",
          "type": "string"
        },
        {
          "internalType": "uint256",
          "name": "_age",
          "type": "uint256"
        },
        {
          "internalType": "string",
          "name": "_gender",
          "type": "string"
        },
        {
          "internalType": "string",
          "name": "_fatherName",
          "type": "string"
        },
        {
          "internalType": "string",
          "name": "_motherName",
          "type": "string"
        },
        {
          "internalType": "string",
          "name": "_address",
          "type": "string"
        },
        {
          "internalType": "string",
          "name": "_imgHash",
          "type": "string"
        },
        {
          "internalType": "string",
          "name": "_skillName",
          "type": "string"
        },
        {
          "internalType": "string",
          "name": "_description",
          "type": "string"
        }
      ],
      "name": "addProfile",
      "outputs": [],
      "stateMutability": "nonpayable",
      "type": "function"
    },
    {
      "inputs": [
        {
          "internalType": "address",
          "name": "_owner",
          "type": "address"
        }
      ],
      "name": "blockOwner",
      "outputs": [],
      "stateMutability": "nonpayable",
      "type": "function"
    },
    {
      "inputs": [],
      "name": "blockedOwnerCount",
      "outputs": [
        {
          "internalType": "uint256",
          "name": "",
          "type": "uint256"
        }
      ],
      "stateMutability": "view",
      "type": "function"
    },
    {
      "inputs": [
        {
          "internalType": "address",
          "name": "",
          "type": "address"
        }
      ],
      "name": "blockedOwnerToOwnerId",
      "outputs": [
        {
          "internalType": "uint256",
          "name": "",
          "type": "uint256"
        }
      ],
      "stateMutability": "view",
      "type": "function"
    },
    {
      "inputs": [
        {
          "internalType": "uint256",
          "name": "_id",
          "type": "uint256"
        }
      ],
      "name": "getProfileByPersonalDetails",
      "outputs": [
        {
          "internalType": "string",
          "name": "name",
          "type": "string"
        },
        {
          "internalType": "uint256",
          "name": "age",
          "type": "uint256"
        },
        {
          "internalType": "string",
          "name": "gender",
          "type": "string"
        },
        {
          "internalType": "string",
          "name": "fatherName",
          "type": "string"
        },
        {
          "internalType": "string",
          "name": "motherName",
          "type": "string"
        },
        {
          "internalType": "string",
          "name": "_Address",
          "type": "string"
        }
      ],
      "stateMutability": "view",
      "type": "function"
    },
    {
      "inputs": [
        {
          "internalType": "uint256",
          "name": "_id",
          "type": "uint256"
        }
      ],
      "name": "getProfileBySkill",
      "outputs": [
        {
          "internalType": "string",
          "name": "imgHash",
          "type": "string"
        },
        {
          "internalType": "string",
          "name": "skillName",
          "type": "string"
        },
        {
          "internalType": "string",
          "name": "description",
          "type": "string"
        }
      ],
      "stateMutability": "view",
      "type": "function"
    },
    {
      "inputs": [
        {
          "internalType": "uint256",
          "name": "_id",
          "type": "uint256"
        }
      ],
      "name": "getUploadedVideo",
      "outputs": [
        {
          "internalType": "string",
          "name": "videoLink",
          "type": "string"
        },
        {
          "internalType": "string",
          "name": "description",
          "type": "string"
        },
        {
          "internalType": "string",
          "name": "skillName",
          "type": "string"
        }
      ],
      "stateMutability": "view",
      "type": "function"
    },
    {
      "inputs": [],
      "name": "ownerCount",
      "outputs": [
        {
          "internalType": "uint256",
          "name": "",
          "type": "uint256"
        }
      ],
      "stateMutability": "view",
      "type": "function"
    },
    {
      "inputs": [
        {
          "internalType": "address",
          "name": "",
          "type": "address"
        }
      ],
      "name": "ownerToOwnerId",
      "outputs": [
        {
          "internalType": "uint256",
          "name": "",
          "type": "uint256"
        }
      ],
      "stateMutability": "view",
      "type": "function"
    },
    {
      "inputs": [
        {
          "internalType": "address",
          "name": "_newOwner",
          "type": "address"
        }
      ],
      "name": "setOwner",
      "outputs": [],
      "stateMutability": "nonpayable",
      "type": "function"
    },
    {
      "inputs": [
        {
          "internalType": "uint256",
          "name": "_profileId",
          "type": "uint256"
        },
        {
          "internalType": "string",
          "name": "_videoLink",
          "type": "string"
        },
        {
          "internalType": "string",
          "name": "_description",
          "type": "string"
        },
        {
          "internalType": "string",
          "name": "_skillName",
          "type": "string"
        }
      ],
      "name": "uploadVideo",
      "outputs": [],
      "stateMutability": "nonpayable",
      "type": "function"
    }
  ],
  "bytecode": "608060405234801561001057600080fd5b5060405161103638038061103683398101604081905261002f91610095565b600060048190556001600281905533825260036020526040822081905581546001600160a01b039485166001600160a01b03199182161790925580549290931691161790556100c8565b80516001600160a01b038116811461009057600080fd5b919050565b600080604083850312156100a857600080fd5b6100b183610079565b91506100bf60208401610079565b90509250929050565b610f5f806100d76000396000f3fe608060405234801561001057600080fd5b50600436106100b45760003560e01c80636c930968116100715780636c9309681461017157806387d11c69146101845780639af0127d1461018d578063bbdf4b5d146101a0578063c8daa824146101b3578063ef48ba02146101c657600080fd5b80630db02622146100b9578063128b0a5d146100d557806313af4035146100f55780633d3965601461010a5780634a36393d1461012f5780635cfe21511461014f575b600080fd5b6100c260025481565b6040519081526020015b60405180910390f35b6100c26100e3366004610752565b60036020526000908152604090205481565b610108610103366004610752565b6101d9565b005b61011d610118366004610782565b6102c7565b6040516100cc969594939291906107f7565b6100c261013d366004610752565b60056020526000908152604090205481565b61016261015d366004610782565b61035a565b6040516100cc9392919061086b565b61016261017f366004610782565b6103de565b6100c260045481565b61010861019b366004610973565b610414565b6101086101ae3660046109d7565b6104d5565b6101086101c1366004610752565b61059c565b6101086101d4366004610a69565b61067c565b3360009081526003602052604090205461020e5760405162461bcd60e51b815260040161020590610bb3565b60405180910390fd5b336000908152600560205260409020541561023b5760405162461bcd60e51b815260040161020590610bf5565b6001600160a01b038116600090815260036020526040902054156102985760405162461bcd60e51b815260206004820152601460248201527327bbb732b91030b63932b0b23c9030b23232b21760611b6044820152606401610205565b6002546102a6906001610c25565b60028190556001600160a01b03909116600090815260036020526040902055565b6001546040516301e9cb2b60e51b81526004810183905260609160009183918291829182916001600160a01b0390911690633d39656090602401600060405180830381865afa15801561031e573d6000803e3d6000fd5b505050506040513d6000823e601f3d908101601f191682016040526103469190810190610c98565b949c939b5091995097509550909350915050565b600154604051635cfe215160e01b815260048101839052606091829182916001600160a01b031690635cfe2151906024015b600060405180830381865afa1580156103a9573d6000803e3d6000fd5b505050506040513d6000823e601f3d908101601f191682016040526103d19190810190610d72565b9250925092509193909250565b600154604051630d92612d60e31b815260048101839052606091829182916001600160a01b031690636c9309689060240161038c565b336000908152600360205260409020546104405760405162461bcd60e51b815260040161020590610bb3565b336000908152600560205260409020541561046d5760405162461bcd60e51b815260040161020590610bf5565b600054604051638f74835d60e01b81526001600160a01b0390911690638f74835d9061049f9085908590600401610dfa565b600060405180830381600087803b1580156104b957600080fd5b505af11580156104cd573d6000803e3d6000fd5b505050505050565b336000908152600360205260409020546105015760405162461bcd60e51b815260040161020590610bb3565b336000908152600560205260409020541561052e5760405162461bcd60e51b815260040161020590610bf5565b60015460405163bbdf4b5d60e01b81526001600160a01b039091169063bbdf4b5d90610564908790879087908790600401610e28565b600060405180830381600087803b15801561057e57600080fd5b505af1158015610592573d6000803e3d6000fd5b5050505050505050565b336000908152600360205260409020546105c85760405162461bcd60e51b815260040161020590610bb3565b33600090815260056020526040902054156105f55760405162461bcd60e51b815260040161020590610bf5565b6001600160a01b038116330361064d5760405162461bcd60e51b815260206004820152601960248201527f596f752063616e6e6f7420626c6f636b20796f757273656c66000000000000006044820152606401610205565b60045461065b906001610c25565b60048190556001600160a01b03909116600090815260056020526040902055565b336000908152600360205260409020546106a85760405162461bcd60e51b815260040161020590610bb3565b33600090815260056020526040902054156106d55760405162461bcd60e51b815260040161020590610bf5565b6001546040516377a45d0160e11b81526001600160a01b039091169063ef48ba0290610715908c908c908c908c908c908c908c908c908c90600401610e72565b600060405180830381600087803b15801561072f57600080fd5b505af1158015610743573d6000803e3d6000fd5b50505050505050505050505050565b60006020828403121561076457600080fd5b81356001600160a01b038116811461077b57600080fd5b9392505050565b60006020828403121561079457600080fd5b5035919050565b60005b838110156107b657818101518382015260200161079e565b838111156107c5576000848401525b50505050565b600081518084526107e381602086016020860161079b565b601f01601f19169290920160200192915050565b60c08152600061080a60c08301896107cb565b876020840152828103604084015261082281886107cb565b9050828103606084015261083681876107cb565b9050828103608084015261084a81866107cb565b905082810360a084015261085e81856107cb565b9998505050505050505050565b60608152600061087e60608301866107cb565b828103602084015261089081866107cb565b905082810360408401526108a481856107cb565b9695505050505050565b634e487b7160e01b600052604160045260246000fd5b604051601f8201601f1916810167ffffffffffffffff811182821017156108ed576108ed6108ae565b604052919050565b600067ffffffffffffffff82111561090f5761090f6108ae565b50601f01601f191660200190565b600082601f83011261092e57600080fd5b813561094161093c826108f5565b6108c4565b81815284602083860101111561095657600080fd5b816020850160208301376000918101602001919091529392505050565b6000806040838503121561098657600080fd5b823567ffffffffffffffff8082111561099e57600080fd5b6109aa8683870161091d565b935060208501359150808211156109c057600080fd5b506109cd8582860161091d565b9150509250929050565b600080600080608085870312156109ed57600080fd5b84359350602085013567ffffffffffffffff80821115610a0c57600080fd5b610a188883890161091d565b94506040870135915080821115610a2e57600080fd5b610a3a8883890161091d565b93506060870135915080821115610a5057600080fd5b50610a5d8782880161091d565b91505092959194509250565b60008060008060008060008060006101208a8c031215610a8857600080fd5b893567ffffffffffffffff80821115610aa057600080fd5b610aac8d838e0161091d565b9a5060208c0135995060408c0135915080821115610ac957600080fd5b610ad58d838e0161091d565b985060608c0135915080821115610aeb57600080fd5b610af78d838e0161091d565b975060808c0135915080821115610b0d57600080fd5b610b198d838e0161091d565b965060a08c0135915080821115610b2f57600080fd5b610b3b8d838e0161091d565b955060c08c0135915080821115610b5157600080fd5b610b5d8d838e0161091d565b945060e08c0135915080821115610b7357600080fd5b610b7f8d838e0161091d565b93506101008c0135915080821115610b9657600080fd5b50610ba38c828d0161091d565b9150509295985092959850929598565b60208082526022908201527f4f6e6c79206f776e65722063616e2063616c6c20746869732066756e6374696f604082015261371760f11b606082015260800190565b6020808252601690820152752cb7ba903430bb32903132b2b710313637b1b5b2b21760511b604082015260600190565b60008219821115610c4657634e487b7160e01b600052601160045260246000fd5b500190565b600082601f830112610c5c57600080fd5b8151610c6a61093c826108f5565b818152846020838601011115610c7f57600080fd5b610c9082602083016020870161079b565b949350505050565b60008060008060008060c08789031215610cb157600080fd5b865167ffffffffffffffff80821115610cc957600080fd5b610cd58a838b01610c4b565b9750602089015196506040890151915080821115610cf257600080fd5b610cfe8a838b01610c4b565b95506060890151915080821115610d1457600080fd5b610d208a838b01610c4b565b94506080890151915080821115610d3657600080fd5b610d428a838b01610c4b565b935060a0890151915080821115610d5857600080fd5b50610d6589828a01610c4b565b9150509295509295509295565b600080600060608486031215610d8757600080fd5b835167ffffffffffffffff80821115610d9f57600080fd5b610dab87838801610c4b565b94506020860151915080821115610dc157600080fd5b610dcd87838801610c4b565b93506040860151915080821115610de357600080fd5b50610df086828701610c4b565b9150509250925092565b604081526000610e0d60408301856107cb565b8281036020840152610e1f81856107cb565b95945050505050565b848152608060208201526000610e4160808301866107cb565b8281036040840152610e5381866107cb565b90508281036060840152610e6781856107cb565b979650505050505050565b6000610120808352610e868184018d6107cb565b90508a60208401528281036040840152610ea0818b6107cb565b90508281036060840152610eb4818a6107cb565b90508281036080840152610ec881896107cb565b905082810360a0840152610edc81886107cb565b905082810360c0840152610ef081876107cb565b905082810360e0840152610f0481866107cb565b9050828103610100840152610f1981856107cb565b9c9b50505050505050505050505056fea2646970667358221220a0ab1358dbc6d23cef03ffea2343fac2581d315ded3cd58cf44879a17fbea37364736f6c634300080e0033",
  "bytecodeSha1": "b7ead22ad23c53128cd312fe60176d42d5ab3d7f",
  "compiler": {
    "evm_version": "istanbul",
    "optimizer": {
      "enabled": true,
      "runs": 200
    },
    "version": "0.8.14+commit.80d49f37"
  },
  "contractName": "Admin",
  "language": "Solidity",
  "natspec": {
    "kind": "dev",
    "methods": {},
    "version": 1
  },
  "opcodes": "PUSH1 0x80 PUSH1 0x40 MSTORE CALLVALUE DUP1 ISZERO PUSH2 0x10 JUMPI PUSH1 0x0 DUP1 REVERT JUMPDEST POP PUSH1 0x4 CALLDATASIZE LT PUSH2 0xB4 JUMPI PUSH1 0x0 CALLDATALOAD PUSH1 0xE0 SHR DUP1 PUSH4 0x6C930968 GT PUSH2 0x71 JUMPI DUP1 PUSH4 0x6C930968 EQ PUSH2 0x171 JUMPI DUP1 PUSH4 0x87D11C69 EQ PUSH2 0x184 JUMPI DUP1 PUSH4 0x9AF0127D EQ PUSH2 0x18D JUMPI DUP1 PUSH4 0xBBDF4B5D EQ PUSH2 0x1A0 JUMPI DUP1 PUSH4 0xC8DAA824 EQ PUSH2 0x1B3 JUMPI DUP1 PUSH4 0xEF48BA02 EQ PUSH2 0x1C6 JUMPI PUSH1 0x0 DUP1 REVERT JUMPDEST DUP1 PUSH4 0xDB02622 EQ PUSH2 0xB9 JUMPI DUP1 PUSH4 0x128B0A5D EQ PUSH2 0xD5 JUMPI DUP1 PUSH4 0x13AF4035 EQ PUSH2 0xF5 JUMPI DUP1 PUSH4 0x3D396560 EQ PUSH2 0x10A JUMPI DUP1 PUSH4 0x4A36393D EQ PUSH2 0x12F JUMPI DUP1 PUSH4 0x5CFE2151 EQ PUSH2 0x14F JUMPI JUMPDEST PUSH1 0x0 DUP1 REVERT JUMPDEST PUSH2 0xC2 PUSH1 0x2 SLOAD DUP2 JUMP JUMPDEST PUSH1 0x40 MLOAD SWAP1 DUP2 MSTORE PUSH1 0x20 ADD JUMPDEST PUSH1 0x40 MLOAD DUP1 SWAP2 SUB SWAP1 RETURN JUMPDEST PUSH2 0xC2 PUSH2 0xE3 CALLDATASIZE PUSH1 0x4 PUSH2 0x752 JUMP JUMPDEST PUSH1 0x3 PUSH1 0x20 MSTORE PUSH1 0x0 SWAP1 DUP2 MSTORE PUSH1 0x40 SWAP1 KECCAK256 SLOAD DUP2 JUMP JUMPDEST PUSH2 0x108 PUSH2 0x103 CALLDATASIZE PUSH1 0x4 PUSH2 0x752 JUMP JUMPDEST PUSH2 0x1D9 JUMP JUMPDEST STOP JUMPDEST PUSH2 0x11D PUSH2 0x118 CALLDATASIZE PUSH1 0x4 PUSH2 0x782 JUMP JUMPDEST PUSH2 0x2C7 JUMP JUMPDEST PUSH1 0x40 MLOAD PUSH2 0xCC SWAP7 SWAP6 SWAP5 SWAP4 SWAP3 SWAP2 SWAP1 PUSH2 0x7F7 JUMP JUMPDEST PUSH2 0xC2 PUSH2 0x13D CALLDATASIZE PUSH1 0x4 PUSH2 0x752 JUMP JUMPDEST PUSH1 0x5 PUSH1 0x20 MSTORE PUSH1 0x0 SWAP1 DUP2 MSTORE PUSH1 0x40 SWAP1 KECCAK256 SLOAD DUP2 JUMP JUMPDEST PUSH2 0x162 PUSH2 0x15D CALLDATASIZE PUSH1 0x4 PUSH2 0x782 JUMP JUMPDEST PUSH2 0x35A JUMP JUMPDEST PUSH1 0x40 MLOAD PUSH2 0xCC SWAP4 SWAP3 SWAP2 SWAP1 PUSH2 0x86B JUMP JUMPDEST PUSH2 0x162 PUSH2 0x17F CALLDATASIZE PUSH1 0x4 PUSH2 0x782 JUMP JUMPDEST PUSH2 0x3DE JUMP JUMPDEST PUSH2 0xC2 PUSH1 0x4 SLOAD DUP2 JUMP JUMPDEST PUSH2 0x108 PUSH2 0x19B CALLDATASIZE PUSH1 0x4 PUSH2 0x973 JUMP JUMPDEST PUSH2 0x414 JUMP JUMPDEST PUSH2 0x108 PUSH2 0x1AE CALLDATASIZE PUSH1 0x4 PUSH2 0x9D7 JUMP JUMPDEST PUSH2 0x4D5 JUMP JUMPDEST PUSH2 0x108 PUSH2 0x1C1 CALLDATASIZE PUSH1 0x4 PUSH2 0x752 JUMP JUMPDEST PUSH2 0x59C JUMP JUMPDEST PUSH2 0x108 PUSH2 0x1D4 CALLDATASIZE PUSH1 0x4 PUSH2 0xA69 JUMP JUMPDEST PUSH2 0x67C JUMP JUMPDEST CALLER PUSH1 0x0 SWAP1 DUP2 MSTORE PUSH1 0x3 PUSH1 0x20 MSTORE PUSH1 0x40 SWAP1 KECCAK256 SLOAD PUSH2 0x20E JUMPI PUSH1 0x40 MLOAD PUSH3 0x461BCD PUSH1 0xE5 SHL DUP2 MSTORE PUSH1 0x4 ADD PUSH2 0x205 SWAP1 PUSH2 0xBB3 JUMP JUMPDEST PUSH1 0x40 MLOAD DUP1 SWAP2 SUB SWAP1 REVERT JUMPDEST CALLER PUSH1 0x0 SWAP1 DUP2 MSTORE PUSH1 0x5 PUSH1 0x20 MSTORE PUSH1 0x40 SWAP1 KECCAK256 SLOAD ISZERO PUSH2 0x23B JUMPI PUSH1 0x40 MLOAD PUSH3 0x461BCD PUSH1 0xE5 SHL DUP2 MSTORE PUSH1 0x4 ADD PUSH2 0x205 SWAP1 PUSH2 0xBF5 JUMP JUMPDEST PUSH1 0x1 PUSH1 0x1 PUSH1 0xA0 SHL SUB DUP2 AND PUSH1 0x0 SWAP1 DUP2 MSTORE PUSH1 0x3 PUSH1 0x20 MSTORE PUSH1 0x40 SWAP1 KECCAK256 SLOAD ISZERO PUSH2 0x298 JUMPI PUSH1 0x40 MLOAD PUSH3 0x461BCD PUSH1 0xE5 SHL DUP2 MSTORE PUSH1 0x20 PUSH1 0x4 DUP3 ADD MSTORE PUSH1 0x14 PUSH1 0x24 DUP3 ADD MSTORE PUSH20 0x27BBB732B91030B63932B0B23C9030B23232B217 PUSH1 0x61 SHL PUSH1 0x44 DUP3 ADD MSTORE PUSH1 0x64 ADD PUSH2 0x205 JUMP JUMPDEST PUSH1 0x2 SLOAD PUSH2 0x2A6 SWAP1 PUSH1 0x1 PUSH2 0xC25 JUMP JUMPDEST PUSH1 0x2 DUP2 SWAP1 SSTORE PUSH1 0x1 PUSH1 0x1 PUSH1 0xA0 SHL SUB SWAP1 SWAP2 AND PUSH1 0x0 SWAP1 DUP2 MSTORE PUSH1 0x3 PUSH1 0x20 MSTORE PUSH1 0x40 SWAP1 KECCAK256 SSTORE JUMP JUMPDEST PUSH1 0x1 SLOAD PUSH1 0x40 MLOAD PUSH4 0x1E9CB2B PUSH1 0xE5 SHL DUP2 MSTORE PUSH1 0x4 DUP2 ADD DUP4 SWAP1 MSTORE PUSH1 0x60 SWAP2 PUSH1 0x0 SWAP2 DUP4 SWAP2 DUP3 SWAP2 DUP3 SWAP2 DUP3 SWAP2 PUSH1 0x1 PUSH1 0x1 PUSH1 0xA0 SHL SUB SWAP1 SWAP2 AND SWAP1 PUSH4 0x3D396560 SWAP1 PUSH1 0x24 ADD PUSH1 0x0 PUSH1 0x40 MLOAD DUP1 DUP4 SUB DUP2 DUP7 GAS STATICCALL ISZERO DUP1 ISZERO PUSH2 0x31E JUMPI RETURNDATASIZE PUSH1 0x0 DUP1 RETURNDATACOPY RETURNDATASIZE PUSH1 0x0 REVERT JUMPDEST POP POP POP POP PUSH1 0x40 MLOAD RETURNDATASIZE PUSH1 0x0 DUP3 RETURNDATACOPY PUSH1 0x1F RETURNDATASIZE SWAP1 DUP2 ADD PUSH1 0x1F NOT AND DUP3 ADD PUSH1 0x40 MSTORE PUSH2 0x346 SWAP2 SWAP1 DUP2 ADD SWAP1 PUSH2 0xC98 JUMP JUMPDEST SWAP5 SWAP13 SWAP4 SWAP12 POP SWAP2 SWAP10 POP SWAP8 POP SWAP6 POP SWAP1 SWAP4 POP SWAP2 POP POP JUMP JUMPDEST PUSH1 0x1 SLOAD PUSH1 0x40 MLOAD PUSH4 0x5CFE2151 PUSH1 0xE0 SHL DUP2 MSTORE PUSH1 0x4 DUP2 ADD DUP4 SWAP1 MSTORE PUSH1 0x60 SWAP2 DUP3 SWAP2 DUP3 SWAP2 PUSH1 0x1 PUSH1 0x1 PUSH1 0xA0 SHL SUB AND SWAP1 PUSH4 0x5CFE2151 SWAP1 PUSH1 0x24 ADD JUMPDEST PUSH1 0x0 PUSH1 0x40 MLOAD DUP1 DUP4 SUB DUP2 DUP7 GAS STATICCALL ISZERO DUP1 ISZERO PUSH2 0x3A9 JUMPI RETURNDATASIZE PUSH1 0x0 DUP1 RETURNDATACOPY RETURNDATASIZE PUSH1 0x0 REVERT JUMPDEST POP POP POP POP PUSH1 0x40 MLOAD RETURNDATASIZE PUSH1 0x0 DUP3 RETURNDATACOPY PUSH1 0x1F RETURNDATASIZE SWAP1 DUP2 ADD PUSH1 0x1F NOT AND DUP3 ADD PUSH1 0x40 MSTORE PUSH2 0x3D1 SWAP2 SWAP1 DUP2 ADD SWAP1 PUSH2 0xD72 JUMP JUMPDEST SWAP3 POP SWAP3 POP SWAP3 POP SWAP2 SWAP4 SWAP1 SWAP3 POP JUMP JUMPDEST PUSH1 0x1 SLOAD PUSH1 0x40 MLOAD PUSH4 0xD92612D PUSH1 0xE3 SHL DUP2 MSTORE PUSH1 0x4 DUP2 ADD DUP4 SWAP1 MSTORE PUSH1 0x60 SWAP2 DUP3 SWAP2 DUP3 SWAP2 PUSH1 0x1 PUSH1 0x1 PUSH1 0xA0 SHL SUB AND SWAP1 PUSH4 0x6C930968 SWAP1 PUSH1 0x24 ADD PUSH2 0x38C JUMP JUMPDEST CALLER PUSH1 0x0 SWAP1 DUP2 MSTORE PUSH1 0x3 PUSH1 0x20 MSTORE PUSH1 0x40 SWAP1 KECCAK256 SLOAD PUSH2 0x440 JUMPI PUSH1 0x40 MLOAD PUSH3 0x461BCD PUSH1 0xE5 SHL DUP2 MSTORE PUSH1 0x4 ADD PUSH2 0x205 SWAP1 PUSH2 0xBB3 JUMP JUMPDEST CALLER PUSH1 0x0 SWAP1 DUP2 MSTORE PUSH1 0x5 PUSH1 0x20 MSTORE PUSH1 0x40 SWAP1 KECCAK256 SLOAD ISZERO PUSH2 0x46D JUMPI PUSH1 0x40 MLOAD PUSH3 0x461BCD PUSH1 0xE5 SHL DUP2 MSTORE PUSH1 0x4 ADD PUSH2 0x205 SWAP1 PUSH2 0xBF5 JUMP JUMPDEST PUSH1 0x0 SLOAD PUSH1 0x40 MLOAD PUSH4 0x8F74835D PUSH1 0xE0 SHL DUP2 MSTORE PUSH1 0x1 PUSH1 0x1 PUSH1 0xA0 SHL SUB SWAP1 SWAP2 AND SWAP1 PUSH4 0x8F74835D SWAP1 PUSH2 0x49F SWAP1 DUP6 SWAP1 DUP6 SWAP1 PUSH1 0x4 ADD PUSH2 0xDFA JUMP JUMPDEST PUSH1 0x0 PUSH1 0x40 MLOAD DUP1 DUP4 SUB DUP2 PUSH1 0x0 DUP8 DUP1 EXTCODESIZE ISZERO DUP1 ISZERO PUSH2 0x4B9 JUMPI PUSH1 0x0 DUP1 REVERT JUMPDEST POP GAS CALL ISZERO DUP1 ISZERO PUSH2 0x4CD JUMPI RETURNDATASIZE PUSH1 0x0 DUP1 RETURNDATACOPY RETURNDATASIZE PUSH1 0x0 REVERT JUMPDEST POP POP POP POP POP POP JUMP JUMPDEST CALLER PUSH1 0x0 SWAP1 DUP2 MSTORE PUSH1 0x3 PUSH1 0x20 MSTORE PUSH1 0x40 SWAP1 KECCAK256 SLOAD PUSH2 0x501 JUMPI PUSH1 0x40 MLOAD PUSH3 0x461BCD PUSH1 0xE5 SHL DUP2 MSTORE PUSH1 0x4 ADD PUSH2 0x205 SWAP1 PUSH2 0xBB3 JUMP JUMPDEST CALLER PUSH1 0x0 SWAP1 DUP2 MSTORE PUSH1 0x5 PUSH1 0x20 MSTORE PUSH1 0x40 SWAP1 KECCAK256 SLOAD ISZERO PUSH2 0x52E JUMPI PUSH1 0x40 MLOAD PUSH3 0x461BCD PUSH1 0xE5 SHL DUP2 MSTORE PUSH1 0x4 ADD PUSH2 0x205 SWAP1 PUSH2 0xBF5 JUMP JUMPDEST PUSH1 0x1 SLOAD PUSH1 0x40 MLOAD PUSH4 0xBBDF4B5D PUSH1 0xE0 SHL DUP2 MSTORE PUSH1 0x1 PUSH1 0x1 PUSH1 0xA0 SHL SUB SWAP1 SWAP2 AND SWAP1 PUSH4 0xBBDF4B5D SWAP1 PUSH2 0x564 SWAP1 DUP8 SWAP1 DUP8 SWAP1 DUP8 SWAP1 DUP8 SWAP1 PUSH1 0x4 ADD PUSH2 0xE28 JUMP JUMPDEST PUSH1 0x0 PUSH1 0x40 MLOAD DUP1 DUP4 SUB DUP2 PUSH1 0x0 DUP8 DUP1 EXTCODESIZE ISZERO DUP1 ISZERO PUSH2 0x57E JUMPI PUSH1 0x0 DUP1 REVERT JUMPDEST POP GAS CALL ISZERO DUP1 ISZERO PUSH2 0x592 JUMPI RETURNDATASIZE PUSH1 0x0 DUP1 RETURNDATACOPY RETURNDATASIZE PUSH1 0x0 REVERT JUMPDEST POP POP POP POP POP POP POP POP JUMP JUMPDEST CALLER PUSH1 0x0 SWAP1 DUP2 MSTORE PUSH1 0x3 PUSH1 0x20 MSTORE PUSH1 0x40 SWAP1 KECCAK256 SLOAD PUSH2 0x5C8 JUMPI PUSH1 0x40 MLOAD PUSH3 0x461BCD PUSH1 0xE5 SHL DUP2 MSTORE PUSH1 0x4 ADD PUSH2 0x205 SWAP1 PUSH2 0xBB3 JUMP JUMPDEST CALLER PUSH1 0x0 SWAP1 DUP2 MSTORE PUSH1 0x5 PUSH1 0x20 MSTORE PUSH1 0x40 SWAP1 KECCAK256 SLOAD ISZERO PUSH2 0x5F5 JUMPI PUSH1 0x40 MLOAD PUSH3 0x461BCD PUSH1 0xE5 SHL DUP2 MSTORE PUSH1 0x4 ADD PUSH2 0x205 SWAP1 PUSH2 0xBF5 JUMP JUMPDEST PUSH1 0x1 PUSH1 0x1 PUSH1 0xA0 SHL SUB DUP2 AND CALLER SUB PUSH2 0x64D JUMPI PUSH1 0x40 MLOAD PUSH3 0x461BCD PUSH1 0xE5 SHL DUP2 MSTORE PUSH1 0x20 PUSH1 0x4 DUP3 ADD MSTORE PUSH1 0x19 PUSH1 0x24 DUP3 ADD MSTORE PUSH32 0x596F752063616E6E6F7420626C6F636B20796F757273656C6600000000000000 PUSH1 0x44 DUP3 ADD MSTORE PUSH1 0x64 ADD PUSH2 0x205 JUMP JUMPDEST PUSH1 0x4 SLOAD PUSH2 0x65B SWAP1 PUSH1 0x1 PUSH2 0xC25 JUMP JUMPDEST PUSH1 0x4 DUP2 SWAP1 SSTORE PUSH1 0x1 PUSH1 0x1 PUSH1 0xA0 SHL SUB SWAP1 SWAP2 AND PUSH1 0x0 SWAP1 DUP2 MSTORE PUSH1 0x5 PUSH1 0x20 MSTORE PUSH1 0x40 SWAP1 KECCAK256 SSTORE JUMP JUMPDEST CALLER PUSH1 0x0 SWAP1 DUP2 MSTORE PUSH1 0x3 PUSH1 0x20 MSTORE PUSH1 0x40 SWAP1 KECCAK256 SLOAD PUSH2 0x6A8 JUMPI PUSH1 0x40 MLOAD PUSH3 0x461BCD PUSH1 0xE5 SHL DUP2 MSTORE PUSH1 0x4 ADD PUSH2 0x205 SWAP1 PUSH2 0xBB3 JUMP JUMPDEST CALLER PUSH1 0x0 SWAP1 DUP2 MSTORE PUSH1 0x5 PUSH1 0x20 MSTORE PUSH1 0x40 SWAP1 KECCAK256 SLOAD ISZERO PUSH2 0x6D5 JUMPI PUSH1 0x40 MLOAD PUSH3 0x461BCD PUSH1 0xE5 SHL DUP2 MSTORE PUSH1 0x4 ADD PUSH2 0x205 SWAP1 PUSH2 0xBF5 JUMP JUMPDEST PUSH1 0x1 SLOAD PUSH1 0x40 MLOAD PUSH4 0x77A45D01 PUSH1 0xE1 SHL DUP2 MSTORE PUSH1 0x1 PUSH1 0x1 PUSH1 0xA0 SHL SUB SWAP1 SWAP2 AND SWAP1 PUSH4 0xEF48BA02 SWAP1 PUSH2 0x715 SWAP1 DUP13 SWAP1 DUP13 SWAP1 DUP13 SWAP1 DUP13 SWAP1 DUP13 SWAP1 DUP13 SWAP1 DUP13 SWAP1 DUP13 SWAP1 DUP13 SWAP1 PUSH1 0x4 ADD PUSH2 0xE72 JUMP JUMPDEST PUSH1 0x0 PUSH1 0x40 MLOAD DUP1 DUP4 SUB DUP2 PUSH1 0x0 DUP8 DUP1 EXTCODESIZE ISZERO DUP1 ISZERO PUSH2 0x72F JUMPI PUSH1 0x0 DUP1 REVERT JUMPDEST POP GAS CALL ISZERO DUP1 ISZERO PUSH2 0x743 JUMPI RETURNDATASIZE PUSH1 0x0 DUP1 RETURNDATACOPY RETURNDATASIZE PUSH1 0x0 REVERT JUMPDEST POP POP POP POP POP POP POP POP POP POP POP POP POP JUMP JUMPDEST PUSH1 0x0 PUSH1 0x20 DUP3 DUP5 SUB SLT ISZERO PUSH2 0x764 JUMPI PUSH1 0x0 DUP1 REVERT JUMPDEST DUP2 CALLDATALOAD PUSH1 0x1 PUSH1 0x1 PUSH1 0xA0 SHL SUB DUP2 AND DUP2 EQ PUSH2 0x77B JUMPI PUSH1 0x0 DUP1 REVERT JUMPDEST SWAP4 SWAP3 POP POP POP JUMP JUMPDEST PUSH1 0x0 PUSH1 0x20 DUP3 DUP5 SUB SLT ISZERO PUSH2 0x794 JUMPI PUSH1 0x0 DUP1 REVERT JUMPDEST POP CALLDATALOAD SWAP2 SWAP1 POP JUMP JUMPDEST PUSH1 0x0 JUMPDEST DUP4 DUP2 LT ISZERO PUSH2 0x7B6 JUMPI DUP2 DUP2 ADD MLOAD DUP4 DUP3 ADD MSTORE PUSH1 0x20 ADD PUSH2 0x79E JUMP JUMPDEST DUP4 DUP2 GT ISZERO PUSH2 0x7C5 JUMPI PUSH1 0x0 DUP5 DUP5 ADD MSTORE JUMPDEST POP POP POP POP JUMP JUMPDEST PUSH1 0x0 DUP2 MLOAD DUP1 DUP5 MSTORE PUSH2 0x7E3 DUP2 PUSH1 0x20 DUP7 ADD PUSH1 0x20 DUP7 ADD PUSH2 0x79B JUMP JUMPDEST PUSH1 0x1F ADD PUSH1 0x1F NOT AND SWAP3 SWAP1 SWAP3 ADD PUSH1 0x20 ADD SWAP3 SWAP2 POP POP JUMP JUMPDEST PUSH1 0xC0 DUP2 MSTORE PUSH1 0x0 PUSH2 0x80A PUSH1 0xC0 DUP4 ADD DUP10 PUSH2 0x7CB JUMP JUMPDEST DUP8 PUSH1 0x20 DUP5 ADD MSTORE DUP3 DUP2 SUB PUSH1 0x40 DUP5 ADD MSTORE PUSH2 0x822 DUP2 DUP9 PUSH2 0x7CB JUMP JUMPDEST SWAP1 POP DUP3 DUP2 SUB PUSH1 0x60 DUP5 ADD MSTORE PUSH2 0x836 DUP2 DUP8 PUSH2 0x7CB JUMP JUMPDEST SWAP1 POP DUP3 DUP2 SUB PUSH1 0x80 DUP5 ADD MSTORE PUSH2 0x84A DUP2 DUP7 PUSH2 0x7CB JUMP JUMPDEST SWAP1 POP DUP3 DUP2 SUB PUSH1 0xA0 DUP5 ADD MSTORE PUSH2 0x85E DUP2 DUP6 PUSH2 0x7CB JUMP JUMPDEST SWAP10 SWAP9 POP POP POP POP POP POP POP POP POP JUMP JUMPDEST PUSH1 0x60 DUP2 MSTORE PUSH1 0x0 PUSH2 0x87E PUSH1 0x60 DUP4 ADD DUP7 PUSH2 0x7CB JUMP JUMPDEST DUP3 DUP2 SUB PUSH1 0x20 DUP5 ADD MSTORE PUSH2 0x890 DUP2 DUP7 PUSH2 0x7CB JUMP JUMPDEST SWAP1 POP DUP3 DUP2 SUB PUSH1 0x40 DUP5 ADD MSTORE PUSH2 0x8A4 DUP2 DUP6 PUSH2 0x7CB JUMP JUMPDEST SWAP7 SWAP6 POP POP POP POP POP POP JUMP JUMPDEST PUSH4 0x4E487B71 PUSH1 0xE0 SHL PUSH1 0x0 MSTORE PUSH1 0x41 PUSH1 0x4 MSTORE PUSH1 0x24 PUSH1 0x0 REVERT JUMPDEST PUSH1 0x40 MLOAD PUSH1 0x1F DUP3 ADD PUSH1 0x1F NOT AND DUP2 ADD PUSH8 0xFFFFFFFFFFFFFFFF DUP2 GT DUP3 DUP3 LT OR ISZERO PUSH2 0x8ED JUMPI PUSH2 0x8ED PUSH2 0x8AE JUMP JUMPDEST PUSH1 0x40 MSTORE SWAP2 SWAP1 POP JUMP JUMPDEST PUSH1 0x0 PUSH8 0xFFFFFFFFFFFFFFFF DUP3 GT ISZERO PUSH2 0x90F JUMPI PUSH2 0x90F PUSH2 0x8AE JUMP JUMPDEST POP PUSH1 0x1F ADD PUSH1 0x1F NOT AND PUSH1 0x20 ADD SWAP1 JUMP JUMPDEST PUSH1 0x0 DUP3 PUSH1 0x1F DUP4 ADD SLT PUSH2 0x92E JUMPI PUSH1 0x0 DUP1 REVERT JUMPDEST DUP2 CALLDATALOAD PUSH2 0x941 PUSH2 0x93C DUP3 PUSH2 0x8F5 JUMP JUMPDEST PUSH2 0x8C4 JUMP JUMPDEST DUP2 DUP2 MSTORE DUP5 PUSH1 0x20 DUP4 DUP7 ADD ADD GT ISZERO PUSH2 0x956 JUMPI PUSH1 0x0 DUP1 REVERT JUMPDEST DUP2 PUSH1 0x20 DUP6 ADD PUSH1 0x20 DUP4 ADD CALLDATACOPY PUSH1 0x0 SWAP2 DUP2 ADD PUSH1 0x20 ADD SWAP2 SWAP1 SWAP2 MSTORE SWAP4 SWAP3 POP POP POP JUMP JUMPDEST PUSH1 0x0 DUP1 PUSH1 0x40 DUP4 DUP6 SUB SLT ISZERO PUSH2 0x986 JUMPI PUSH1 0x0 DUP1 REVERT JUMPDEST DUP3 CALLDATALOAD PUSH8 0xFFFFFFFFFFFFFFFF DUP1 DUP3 GT ISZERO PUSH2 0x99E JUMPI PUSH1 0x0 DUP1 REVERT JUMPDEST PUSH2 0x9AA DUP7 DUP4 DUP8 ADD PUSH2 0x91D JUMP JUMPDEST SWAP4 POP PUSH1 0x20 DUP6 ADD CALLDATALOAD SWAP2 POP DUP1 DUP3 GT ISZERO PUSH2 0x9C0 JUMPI PUSH1 0x0 DUP1 REVERT JUMPDEST POP PUSH2 0x9CD DUP6 DUP3 DUP7 ADD PUSH2 0x91D JUMP JUMPDEST SWAP2 POP POP SWAP3 POP SWAP3 SWAP1 POP JUMP JUMPDEST PUSH1 0x0 DUP1 PUSH1 0x0 DUP1 PUSH1 0x80 DUP6 DUP8 SUB SLT ISZERO PUSH2 0x9ED JUMPI PUSH1 0x0 DUP1 REVERT JUMPDEST DUP5 CALLDATALOAD SWAP4 POP PUSH1 0x20 DUP6 ADD CALLDATALOAD PUSH8 0xFFFFFFFFFFFFFFFF DUP1 DUP3 GT ISZERO PUSH2 0xA0C JUMPI PUSH1 0x0 DUP1 REVERT JUMPDEST PUSH2 0xA18 DUP9 DUP4 DUP10 ADD PUSH2 0x91D JUMP JUMPDEST SWAP5 POP PUSH1 0x40 DUP8 ADD CALLDATALOAD SWAP2 POP DUP1 DUP3 GT ISZERO PUSH2 0xA2E JUMPI PUSH1 0x0 DUP1 REVERT JUMPDEST PUSH2 0xA3A DUP9 DUP4 DUP10 ADD PUSH2 0x91D JUMP JUMPDEST SWAP4 POP PUSH1 0x60 DUP8 ADD CALLDATALOAD SWAP2 POP DUP1 DUP3 GT ISZERO PUSH2 0xA50 JUMPI PUSH1 0x0 DUP1 REVERT JUMPDEST POP PUSH2 0xA5D DUP8 DUP3 DUP9 ADD PUSH2 0x91D JUMP JUMPDEST SWAP2 POP POP SWAP3 SWAP6 SWAP2 SWAP5 POP SWAP3 POP JUMP JUMPDEST PUSH1 0x0 DUP1 PUSH1 0x0 DUP1 PUSH1 0x0 DUP1 PUSH1 0x0 DUP1 PUSH1 0x0 PUSH2 0x120 DUP11 DUP13 SUB SLT ISZERO PUSH2 0xA88 JUMPI PUSH1 0x0 DUP1 REVERT JUMPDEST DUP10 CALLDATALOAD PUSH8 0xFFFFFFFFFFFFFFFF DUP1 DUP3 GT ISZERO PUSH2 0xAA0 JUMPI PUSH1 0x0 DUP1 REVERT JUMPDEST PUSH2 0xAAC DUP14 DUP4 DUP15 ADD PUSH2 0x91D JUMP JUMPDEST SWAP11 POP PUSH1 0x20 DUP13 ADD CALLDATALOAD SWAP10 POP PUSH1 0x40 DUP13 ADD CALLDATALOAD SWAP2 POP DUP1 DUP3 GT ISZERO PUSH2 0xAC9 JUMPI PUSH1 0x0 DUP1 REVERT JUMPDEST PUSH2 0xAD5 DUP14 DUP4 DUP15 ADD PUSH2 0x91D JUMP JUMPDEST SWAP9 POP PUSH1 0x60 DUP13 ADD CALLDATALOAD SWAP2 POP DUP1 DUP3 GT ISZERO PUSH2 0xAEB JUMPI PUSH1 0x0 DUP1 REVERT JUMPDEST PUSH2 0xAF7 DUP14 DUP4 DUP15 ADD PUSH2 0x91D JUMP JUMPDEST SWAP8 POP PUSH1 0x80 DUP13 ADD CALLDATALOAD SWAP2 POP DUP1 DUP3 GT ISZERO PUSH2 0xB0D JUMPI PUSH1 0x0 DUP1 REVERT JUMPDEST PUSH2 0xB19 DUP14 DUP4 DUP15 ADD PUSH2 0x91D JUMP JUMPDEST SWAP7 POP PUSH1 0xA0 DUP13 ADD CALLDATALOAD SWAP2 POP DUP1 DUP3 GT ISZERO PUSH2 0xB2F JUMPI PUSH1 0x0 DUP1 REVERT JUMPDEST PUSH2 0xB3B DUP14 DUP4 DUP15 ADD PUSH2 0x91D JUMP JUMPDEST SWAP6 POP PUSH1 0xC0 DUP13 ADD CALLDATALOAD SWAP2 POP DUP1 DUP3 GT ISZERO PUSH2 0xB51 JUMPI PUSH1 0x0 DUP1 REVERT JUMPDEST PUSH2 0xB5D DUP14 DUP4 DUP15 ADD PUSH2 0x91D JUMP JUMPDEST SWAP5 POP PUSH1 0xE0 DUP13 ADD CALLDATALOAD SWAP2 POP DUP1 DUP3 GT ISZERO PUSH2 0xB73 JUMPI PUSH1 0x0 DUP1 REVERT JUMPDEST PUSH2 0xB7F DUP14 DUP4 DUP15 ADD PUSH2 0x91D JUMP JUMPDEST SWAP4 POP PUSH2 0x100 DUP13 ADD CALLDATALOAD SWAP2 POP DUP1 DUP3 GT ISZERO PUSH2 0xB96 JUMPI PUSH1 0x0 DUP1 REVERT JUMPDEST POP PUSH2 0xBA3 DUP13 DUP3 DUP14 ADD PUSH2 0x91D JUMP JUMPDEST SWAP2 POP POP SWAP3 SWAP6 SWAP9 POP SWAP3 SWAP6 SWAP9 POP SWAP3 SWAP6 SWAP9 JUMP JUMPDEST PUSH1 0x20 DUP1 DUP3 MSTORE PUSH1 0x22 SWAP1 DUP3 ADD MSTORE PUSH32 0x4F6E6C79206F776E65722063616E2063616C6C20746869732066756E6374696F PUSH1 0x40 DUP3 ADD MSTORE PUSH2 0x3717 PUSH1 0xF1 SHL PUSH1 0x60 DUP3 ADD MSTORE PUSH1 0x80 ADD SWAP1 JUMP JUMPDEST PUSH1 0x20 DUP1 DUP3 MSTORE PUSH1 0x16 SWAP1 DUP3 ADD MSTORE PUSH22 0x2CB7BA903430BB32903132B2B710313637B1B5B2B217 PUSH1 0x51 SHL PUSH1 0x40 DUP3 ADD MSTORE PUSH1 0x60 ADD SWAP1 JUMP JUMPDEST PUSH1 0x0 DUP3 NOT DUP3 GT ISZERO PUSH2 0xC46 JUMPI PUSH4 0x4E487B71 PUSH1 0xE0 SHL PUSH1 0x0 MSTORE PUSH1 0x11 PUSH1 0x4 MSTORE PUSH1 0x24 PUSH1 0x0 REVERT JUMPDEST POP ADD SWAP1 JUMP JUMPDEST PUSH1 0x0 DUP3 PUSH1 0x1F DUP4 ADD SLT PUSH2 0xC5C JUMPI PUSH1 0x0 DUP1 REVERT JUMPDEST DUP2 MLOAD PUSH2 0xC6A PUSH2 0x93C DUP3 PUSH2 0x8F5 JUMP JUMPDEST DUP2 DUP2 MSTORE DUP5 PUSH1 0x20 DUP4 DUP7 ADD ADD GT ISZERO PUSH2 0xC7F JUMPI PUSH1 0x0 DUP1 REVERT JUMPDEST PUSH2 0xC90 DUP3 PUSH1 0x20 DUP4 ADD PUSH1 0x20 DUP8 ADD PUSH2 0x79B JUMP JUMPDEST SWAP5 SWAP4 POP POP POP POP JUMP JUMPDEST PUSH1 0x0 DUP1 PUSH1 0x0 DUP1 PUSH1 0x0 DUP1 PUSH1 0xC0 DUP8 DUP10 SUB SLT ISZERO PUSH2 0xCB1 JUMPI PUSH1 0x0 DUP1 REVERT JUMPDEST DUP7 MLOAD PUSH8 0xFFFFFFFFFFFFFFFF DUP1 DUP3 GT ISZERO PUSH2 0xCC9 JUMPI PUSH1 0x0 DUP1 REVERT JUMPDEST PUSH2 0xCD5 DUP11 DUP4 DUP12 ADD PUSH2 0xC4B JUMP JUMPDEST SWAP8 POP PUSH1 0x20 DUP10 ADD MLOAD SWAP7 POP PUSH1 0x40 DUP10 ADD MLOAD SWAP2 POP DUP1 DUP3 GT ISZERO PUSH2 0xCF2 JUMPI PUSH1 0x0 DUP1 REVERT JUMPDEST PUSH2 0xCFE DUP11 DUP4 DUP12 ADD PUSH2 0xC4B JUMP JUMPDEST SWAP6 POP PUSH1 0x60 DUP10 ADD MLOAD SWAP2 POP DUP1 DUP3 GT ISZERO PUSH2 0xD14 JUMPI PUSH1 0x0 DUP1 REVERT JUMPDEST PUSH2 0xD20 DUP11 DUP4 DUP12 ADD PUSH2 0xC4B JUMP JUMPDEST SWAP5 POP PUSH1 0x80 DUP10 ADD MLOAD SWAP2 POP DUP1 DUP3 GT ISZERO PUSH2 0xD36 JUMPI PUSH1 0x0 DUP1 REVERT JUMPDEST PUSH2 0xD42 DUP11 DUP4 DUP12 ADD PUSH2 0xC4B JUMP JUMPDEST SWAP4 POP PUSH1 0xA0 DUP10 ADD MLOAD SWAP2 POP DUP1 DUP3 GT ISZERO PUSH2 0xD58 JUMPI PUSH1 0x0 DUP1 REVERT JUMPDEST POP PUSH2 0xD65 DUP10 DUP3 DUP11 ADD PUSH2 0xC4B JUMP JUMPDEST SWAP2 POP POP SWAP3 SWAP6 POP SWAP3 SWAP6 POP SWAP3 SWAP6 JUMP JUMPDEST PUSH1 0x0 DUP1 PUSH1 0x0 PUSH1 0x60 DUP5 DUP7 SUB SLT ISZERO PUSH2 0xD87 JUMPI PUSH1 0x0 DUP1 REVERT JUMPDEST DUP4 MLOAD PUSH8 0xFFFFFFFFFFFFFFFF DUP1 DUP3 GT ISZERO PUSH2 0xD9F JUMPI PUSH1 0x0 DUP1 REVERT JUMPDEST PUSH2 0xDAB DUP8 DUP4 DUP9 ADD PUSH2 0xC4B JUMP JUMPDEST SWAP5 POP PUSH1 0x20 DUP7 ADD MLOAD SWAP2 POP DUP1 DUP3 GT ISZERO PUSH2 0xDC1 JUMPI PUSH1 0x0 DUP1 REVERT JUMPDEST PUSH2 0xDCD DUP8 DUP4 DUP9 ADD PUSH2 0xC4B JUMP JUMPDEST SWAP4 POP PUSH1 0x40 DUP7 ADD MLOAD SWAP2 POP DUP1 DUP3 GT ISZERO PUSH2 0xDE3 JUMPI PUSH1 0x0 DUP1 REVERT JUMPDEST POP PUSH2 0xDF0 DUP7 DUP3 DUP8 ADD PUSH2 0xC4B JUMP JUMPDEST SWAP2 POP POP SWAP3 POP SWAP3 POP SWAP3 JUMP JUMPDEST PUSH1 0x40 DUP2 MSTORE PUSH1 0x0 PUSH2 0xE0D PUSH1 0x40 DUP4 ADD DUP6 PUSH2 0x7CB JUMP JUMPDEST DUP3 DUP2 SUB PUSH1 0x20 DUP5 ADD MSTORE PUSH2 0xE1F DUP2 DUP6 PUSH2 0x7CB JUMP JUMPDEST SWAP6 SWAP5 POP POP POP POP POP JUMP JUMPDEST DUP5 DUP2 MSTORE PUSH1 0x80 PUSH1 0x20 DUP3 ADD MSTORE PUSH1 0x0 PUSH2 0xE41 PUSH1 0x80 DUP4 ADD DUP7 PUSH2 0x7CB JUMP JUMPDEST DUP3 DUP2 SUB PUSH1 0x40 DUP5 ADD MSTORE PUSH2 0xE53 DUP2 DUP7 PUSH2 0x7CB JUMP JUMPDEST SWAP1 POP DUP3 DUP2 SUB PUSH1 0x60 DUP5 ADD MSTORE PUSH2 0xE67 DUP2 DUP6 PUSH2 0x7CB JUMP JUMPDEST SWAP8 SWAP7 POP POP POP POP POP POP POP JUMP JUMPDEST PUSH1 0x0 PUSH2 0x120 DUP1 DUP4 MSTORE PUSH2 0xE86 DUP2 DUP5 ADD DUP14 PUSH2 0x7CB JUMP JUMPDEST SWAP1 POP DUP11 PUSH1 0x20 DUP5 ADD MSTORE DUP3 DUP2 SUB PUSH1 0x40 DUP5 ADD MSTORE PUSH2 0xEA0 DUP2 DUP12 PUSH2 0x7CB JUMP JUMPDEST SWAP1 POP DUP3 DUP2 SUB PUSH1 0x60 DUP5 ADD MSTORE PUSH2 0xEB4 DUP2 DUP11 PUSH2 0x7CB JUMP JUMPDEST SWAP1 POP DUP3 DUP2 SUB PUSH1 0x80 DUP5 ADD MSTORE PUSH2 0xEC8 DUP2 DUP10 PUSH2 0x7CB JUMP JUMPDEST SWAP1 POP DUP3 DUP2 SUB PUSH1 0xA0 DUP5 ADD MSTORE PUSH2 0xEDC DUP2 DUP9 PUSH2 0x7CB JUMP JUMPDEST SWAP1 POP DUP3 DUP2 SUB PUSH1 0xC0 DUP5 ADD MSTORE PUSH2 0xEF0 DUP2 DUP8 PUSH2 0x7CB JUMP JUMPDEST SWAP1 POP DUP3 DUP2 SUB PUSH1 0xE0 DUP5 ADD MSTORE PUSH2 0xF04 DUP2 DUP7 PUSH2 0x7CB JUMP JUMPDEST SWAP1 POP DUP3 DUP2 SUB PUSH2 0x100 DUP5 ADD MSTORE PUSH2 0xF19 DUP2 DUP6 PUSH2 0x7CB JUMP JUMPDEST SWAP13 SWAP12 POP POP POP POP POP POP POP POP POP POP POP POP JUMP INVALID LOG2 PUSH5 0x6970667358 0x22 SLT KECCAK256 LOG0 0xAB SGT PC 0xDB 0xC6 0xD2 EXTCODECOPY 0xEF SUB SELFDESTRUCT 0xEA 0x23 NUMBER STATICCALL 0xC2 PC SAR BALANCE 0x5D 0xED EXTCODECOPY 0xD5 DUP13 DELEGATECALL BASEFEE PUSH26 0xA17FBEA37364736F6C634300080E003300000000000000000000 ",
  "sha1": "97e97981daba1810230e4d1fb3d719c9daeab4bf",
  "source": "// SPDX-License-Identifier: MIT\nimport \"./login.sol\";\nimport \"./Content.sol\";\n\npragma solidity 0.8.14;\n\ncontract Admin {\n    PlatformLogin platformLogin;\n    KhelManch khelManch;\n\n    uint256 public ownerCount;\n    mapping(address => uint256) public ownerToOwnerId;\n    uint256 public blockedOwnerCount;\n    mapping(address => uint256) public blockedOwnerToOwnerId;\n\n    constructor(address _platformLogin, address _khelManch) {\n        blockedOwnerCount = 0;\n        ownerCount = 1;\n        ownerToOwnerId[msg.sender] = ownerCount;\n        platformLogin = PlatformLogin(_platformLogin);\n        khelManch = KhelManch(_khelManch);\n    }\n\n    modifier onlyOwner() {\n        require(\n            ownerToOwnerId[msg.sender] > 0,\n            \"Only owner can call this function.\"\n        );\n        require(\n            blockedOwnerToOwnerId[msg.sender] == 0,\n            \"You have been blocked.\"\n        );\n        _;\n    }\n\n    function setOwner(address _newOwner) public onlyOwner {\n        require(ownerToOwnerId[_newOwner] == 0, \"Owner already added.\");\n        ownerCount = ownerCount + 1;\n        ownerToOwnerId[_newOwner] = ownerCount;\n    }\n\n    function blockOwner(address _owner) external onlyOwner {\n        require(msg.sender != _owner, \"You cannot block yourself\");\n        blockedOwnerCount = blockedOwnerCount + 1;\n        blockedOwnerToOwnerId[_owner] = blockedOwnerCount;\n    }\n\n    function addCreator(string memory _name, string memory _profilePic)\n        public\n        onlyOwner\n    {\n        platformLogin.addContentCreator(_name, _profilePic);\n    }\n\n    function addProfile(\n        string memory _name,\n        uint256 _age,\n        string memory _gender,\n        string memory _fatherName,\n        string memory _motherName,\n        string memory _address,\n        string memory _imgHash,\n        string memory _skillName,\n        string memory _description\n    ) public onlyOwner {\n        khelManch.addProfile(\n            _name,\n            _age,\n            _gender,\n            _fatherName,\n            _motherName,\n            _address,\n            _imgHash,\n            _skillName,\n            _description\n        );\n    }\n\n    function uploadVideo(\n        uint256 _profileId,\n        string memory _videoLink,\n        string memory _description,\n        string memory _skillName\n    ) public onlyOwner {\n        khelManch.uploadVideo(_profileId, _videoLink, _description, _skillName);\n    }\n\n    function getProfileByPersonalDetails(uint256 _id)\n        public\n        view\n        returns (\n            string memory name,\n            uint256 age,\n            string memory gender,\n            string memory fatherName,\n            string memory motherName,\n            string memory _Address\n        )\n    {\n        return khelManch.getProfileByPersonalDetails(_id);\n    }\n\n    function getProfileBySkill(uint256 _id)\n        public\n        view\n        returns (\n            string memory imgHash,\n            string memory skillName,\n            string memory description\n        )\n    {\n        return khelManch.getProfileBySkill(_id);\n    }\n\n    function getUploadedVideo(uint256 _id)\n        public\n        view\n        returns (\n            string memory videoLink,\n            string memory description,\n            string memory skillName\n        )\n    {\n        return khelManch.getUploadedVideo(_id);\n    }\n}\n",
  "sourcePath": "contracts/admin.sol",
  "type": "contract"
}